{
  "contractName": "demo",
  "abi": [
    {
      "inputs": [],
      "name": "setnumber",
      "outputs": [
        {
          "internalType": "uint256",
          "name": "",
          "type": "uint256"
        }
      ],
      "stateMutability": "view",
      "type": "function"
    }
  ],
  "bytecode": "0x6080604052600f60005534801561001557600080fd5b5060b6806100246000396000f3fe6080604052348015600f57600080fd5b506004361060285760003560e01c806394e7913814602d575b600080fd5b60336047565b604051603e9190605d565b60405180910390f35b60008054905090565b6057816076565b82525050565b6000602082019050607060008301846050565b92915050565b600081905091905056fea2646970667358221220245161e3da02578f32e8872d56c3a6a4f67b0da395f004243045c6466a96b2a164736f6c63430008070033",
  "immutableReferences": {},
  "source": "// SPDX-License-Identifier: SEE LICENSE IN LICENSE\r\npragma solidity ^0.8.7;\r\n\r\ncontract demo {\r\n    // uint public number;\r\n    uint number = 15;\r\n\r\n    function setnumber() public view returns(uint){\r\n        return number;\r\n    }\r\n}\r\n//     function getnumber() public view returns(uint){\r\n//         return number;\r\n//     }\r\n// }\r\n",
  "sourcePath": "F:\\Projects\\Ethereum Internship\\Truffle\\Truffle  Code Eater integration with react\\contracts\\demo.sol",
  "compiler": {
    "name": "solc",
    "version": "0.8.7+commit.e28d00a7.Emscripten.clang"
  },
  "schemaVersion": "3.4.14",
  "updatedAt": "2023-06-21T10:12:27.752Z",
  "devdoc": {
    "kind": "dev",
    "methods": {},
    "version": 1
  },
  "userdoc": {
    "kind": "user",
    "methods": {},
    "version": 1
  }
}